{
  "_format": "hh-sol-artifact-1",
  "contractName": "Security",
  "sourceName": "contracts/Security.sol",
  "abi": [
    {
      "inputs": [
        {
          "internalType": "uint256",
          "name": "_deadline",
          "type": "uint256"
        }
      ],
      "stateMutability": "nonpayable",
      "type": "constructor"
    },
    {
      "inputs": [],
      "name": "barcode",
      "outputs": [
        {
          "internalType": "uint256",
          "name": "",
          "type": "uint256"
        }
      ],
      "stateMutability": "view",
      "type": "function"
    },
    {
      "inputs": [
        {
          "internalType": "address",
          "name": "",
          "type": "address"
        }
      ],
      "name": "contributors",
      "outputs": [
        {
          "internalType": "uint256",
          "name": "",
          "type": "uint256"
        }
      ],
      "stateMutability": "view",
      "type": "function"
    },
    {
      "inputs": [],
      "name": "getMemos",
      "outputs": [
        {
          "components": [
            {
              "internalType": "bool",
              "name": "target1",
              "type": "bool"
            },
            {
              "internalType": "bool",
              "name": "target2",
              "type": "bool"
            },
            {
              "internalType": "uint256",
              "name": "timestamp",
              "type": "uint256"
            },
            {
              "internalType": "address",
              "name": "from",
              "type": "address"
            }
          ],
          "internalType": "struct Security.Memo[]",
          "name": "",
          "type": "tuple[]"
        }
      ],
      "stateMutability": "view",
      "type": "function"
    },
    {
      "inputs": [
        {
          "internalType": "int256",
          "name": "",
          "type": "int256"
        }
      ],
      "name": "packageStatus",
      "outputs": [
        {
          "internalType": "string",
          "name": "",
          "type": "string"
        }
      ],
      "stateMutability": "view",
      "type": "function"
    },
    {
      "inputs": [],
      "name": "packst",
      "outputs": [
        {
          "internalType": "int256",
          "name": "",
          "type": "int256"
        }
      ],
      "stateMutability": "view",
      "type": "function"
    },
    {
      "inputs": [
        {
          "internalType": "bool",
          "name": "target1",
          "type": "bool"
        },
        {
          "internalType": "bool",
          "name": "target2",
          "type": "bool"
        }
      ],
      "name": "processOrder",
      "outputs": [
        {
          "internalType": "int256",
          "name": "",
          "type": "int256"
        }
      ],
      "stateMutability": "nonpayable",
      "type": "function"
    },
    {
      "inputs": [],
      "name": "security",
      "outputs": [
        {
          "internalType": "address",
          "name": "",
          "type": "address"
        }
      ],
      "stateMutability": "view",
      "type": "function"
    },
    {
      "inputs": [],
      "name": "sessionTime",
      "outputs": [
        {
          "internalType": "uint256",
          "name": "",
          "type": "uint256"
        }
      ],
      "stateMutability": "view",
      "type": "function"
    },
    {
      "inputs": [],
      "name": "target1",
      "outputs": [
        {
          "internalType": "bool",
          "name": "",
          "type": "bool"
        }
      ],
      "stateMutability": "view",
      "type": "function"
    },
    {
      "inputs": [],
      "name": "target2",
      "outputs": [
        {
          "internalType": "bool",
          "name": "",
          "type": "bool"
        }
      ],
      "stateMutability": "view",
      "type": "function"
    }
  ],
  "bytecode": "0x60806040527fffffffffffffffffffffffffffffffffffffffffffffffffffffffffffffffff6007553480156200003557600080fd5b5060405162000c9d38038062000c9d83398181016040528101906200005b9190620000f7565b804262000069919062000158565b60028190555033600160006101000a81548173ffffffffffffffffffffffffffffffffffffffff021916908373ffffffffffffffffffffffffffffffffffffffff1602179055505062000193565b600080fd5b6000819050919050565b620000d181620000bc565b8114620000dd57600080fd5b50565b600081519050620000f181620000c6565b92915050565b60006020828403121562000110576200010f620000b7565b5b60006200012084828501620000e0565b91505092915050565b7f4e487b7100000000000000000000000000000000000000000000000000000000600052601160045260246000fd5b60006200016582620000bc565b91506200017283620000bc565b92508282019050808211156200018d576200018c62000129565b5b92915050565b610afa80620001a36000396000f3fe608060405234801561001057600080fd5b506004361061009d5760003560e01c80636839ff92116100665780636839ff921461014a578063865c51721461017a578063a6e8a85914610198578063c6b83762146101b6578063eac3e799146101e65761009d565b8062750ec1146100a25780631f6d4942146100c0578063482cdada146100f0578063548799181461010e5780636605ba051461012c575b600080fd5b6100aa610204565b6040516100b791906105ef565b60405180910390f35b6100da60048036038101906100d5919061066d565b61020a565b6040516100e791906105ef565b60405180910390f35b6100f8610222565b60405161010591906105ef565b60405180910390f35b610116610228565b60405161012391906106a9565b60405180910390f35b61013461024e565b60405161014191906106dd565b60405180910390f35b610164600480360381019061015f9190610730565b610254565b60405161017191906106dd565b60405180910390f35b61018261041b565b60405161018f91906108a1565b60405180910390f35b6101a0610510565b6040516101ad91906108d2565b60405180910390f35b6101d060048036038101906101cb9190610919565b610523565b6040516101dd91906109d6565b60405180910390f35b6101ee6105c3565b6040516101fb91906108d2565b60405180910390f35b60045481565b60006020528060005260406000206000915090505481565b60025481565b600160009054906101000a900473ffffffffffffffffffffffffffffffffffffffff1681565b60075481565b6000600254421061029a576040517f08c379a000000000000000000000000000000000000000000000000000000000815260040161029190610a44565b60405180910390fd5b600115158315151480156102b2575060011515821515145b156102c4576001600781905550610317565b600015158315151480156102dc575060011515821515145b806102fb5750600115158315151480156102fa575060001515821515145b5b1561030d576002600781905550610316565b60006007819055505b5b60066040518060800160405280851515815260200184151581526020014281526020013373ffffffffffffffffffffffffffffffffffffffff16815250908060018154018082558091505060019003906000526020600020906003020160009091909190915060008201518160000160006101000a81548160ff02191690831515021790555060208201518160000160016101000a81548160ff0219169083151502179055506040820151816001015560608201518160020160006101000a81548173ffffffffffffffffffffffffffffffffffffffff021916908373ffffffffffffffffffffffffffffffffffffffff1602179055505050600754905092915050565b60606006805480602002602001604051908101604052809291908181526020016000905b8282101561050757838290600052602060002090600302016040518060800160405290816000820160009054906101000a900460ff161515151581526020016000820160019054906101000a900460ff16151515158152602001600182015481526020016002820160009054906101000a900473ffffffffffffffffffffffffffffffffffffffff1673ffffffffffffffffffffffffffffffffffffffff1673ffffffffffffffffffffffffffffffffffffffff16815250508152602001906001019061043f565b50505050905090565b600360019054906101000a900460ff1681565b6005602052806000526040600020600091509050805461054290610a93565b80601f016020809104026020016040519081016040528092919081815260200182805461056e90610a93565b80156105bb5780601f10610590576101008083540402835291602001916105bb565b820191906000526020600020905b81548152906001019060200180831161059e57829003601f168201915b505050505081565b600360009054906101000a900460ff1681565b6000819050919050565b6105e9816105d6565b82525050565b600060208201905061060460008301846105e0565b92915050565b600080fd5b600073ffffffffffffffffffffffffffffffffffffffff82169050919050565b600061063a8261060f565b9050919050565b61064a8161062f565b811461065557600080fd5b50565b60008135905061066781610641565b92915050565b6000602082840312156106835761068261060a565b5b600061069184828501610658565b91505092915050565b6106a38161062f565b82525050565b60006020820190506106be600083018461069a565b92915050565b6000819050919050565b6106d7816106c4565b82525050565b60006020820190506106f260008301846106ce565b92915050565b60008115159050919050565b61070d816106f8565b811461071857600080fd5b50565b60008135905061072a81610704565b92915050565b600080604083850312156107475761074661060a565b5b60006107558582860161071b565b92505060206107668582860161071b565b9150509250929050565b600081519050919050565b600082825260208201905092915050565b6000819050602082019050919050565b6107a5816106f8565b82525050565b6107b4816105d6565b82525050565b6107c38161062f565b82525050565b6080820160008201516107df600085018261079c565b5060208201516107f2602085018261079c565b50604082015161080560408501826107ab565b50606082015161081860608501826107ba565b50505050565b600061082a83836107c9565b60808301905092915050565b6000602082019050919050565b600061084e82610770565b610858818561077b565b93506108638361078c565b8060005b8381101561089457815161087b888261081e565b975061088683610836565b925050600181019050610867565b5085935050505092915050565b600060208201905081810360008301526108bb8184610843565b905092915050565b6108cc816106f8565b82525050565b60006020820190506108e760008301846108c3565b92915050565b6108f6816106c4565b811461090157600080fd5b50565b600081359050610913816108ed565b92915050565b60006020828403121561092f5761092e61060a565b5b600061093d84828501610904565b91505092915050565b600081519050919050565b600082825260208201905092915050565b60005b83811015610980578082015181840152602081019050610965565b60008484015250505050565b6000601f19601f8301169050919050565b60006109a882610946565b6109b28185610951565b93506109c2818560208601610962565b6109cb8161098c565b840191505092915050565b600060208201905081810360008301526109f0818461099d565b905092915050565b7f53657373696f6e54696d656f7574000000000000000000000000000000000000600082015250565b6000610a2e600e83610951565b9150610a39826109f8565b602082019050919050565b60006020820190508181036000830152610a5d81610a21565b9050919050565b7f4e487b7100000000000000000000000000000000000000000000000000000000600052602260045260246000fd5b60006002820490506001821680610aab57607f821691505b602082108103610abe57610abd610a64565b5b5091905056fea26469706673582212201cc9097b695f329eea72f3eb7d050bb1a368115bda07c0381ce2271e489b066064736f6c63430008110033",
  "linkReferences": {},
  "deployedLinkReferences": {}
}